:100000005446495300010000700D0300FD6299BD84
:1000100017320105210111114636325917320201FA
:1000200021011111463632591732010121011111F6
:1000300046363259030000000000000000000000B6
:10004000544643530020000028D002000000000066
:10005000008001100121000025210000C947020095
:10006000292100002B2100002D2100003D2100004E
:100070003D2100003D2100003D2100002F21000016
:10008000312100003D21000033210000C56F000038
:100090008F730000372100003D210000CD59001072
:1000A00037210000C7500000CB500000BF72000095
:1000B00037210000036C0000F5620000CF50000003
:1000C000BD6900003721000037210000115E0000EB
:1000D0000000000000000000000000000000000020
:1000E0000000000000000000000000000000000010
:1000F0000000000000000000000000000000000000
:1001000000000000000000000000000000000000EF
:1001100000000000000000000000000000000000DF
:1001200000000000000000000000000000000000CF
:1001300000000000000000000000000000000000BF
:1001400000000000000000000000000000000000AF
:1001500000F003F800F020F8FEE70D480168890878
:100160008900002001C101C101C101C17047000027
:1001700094620010FEE7FEE7FEE7FEE7FEE7FEE71B
:10018000FEE7FEE7FEE703480047FEE7FEE7000064
:10019000202100003D21000000F002F800F068F886
:1001A0000AA090E8000C82448344AAF10107DA45D2
:1001B00001D100F05DF8AFF2090EBAE80F0013F0BC
:1001C000010F18BFFB1A43F001031847C86902006A
:1001D000286A02000A444FF0000C10F8013B13F0AB
:1001E000070408BF10F8014B1D1108BF10F8015B90
:1001F000641E05D010F8016B641E01F8016BF9D183
:1002000013F0080F1EBF10F8014BAD1C0C1B09D1D9
:100210006D1E58BF01F801CBFAD505E014F8016B4B
:1002200001F8016B6D1EF9D59142D6D370470000DD
:10023000103A24BF78C878C1FAD8520724BF30C812
:1002400030C144BF04680C607047000000230024E4
:1002500000250026103A28BF78C1FBD8520728BFD6
:1002600030C148BF0B6070471FB51FBD10B510BD32
:10027000DFF80CD0FFF7F8FF07F078FA0DF0E0FE9A
:100280000080011003B4FFF7F1FF03BC22F0BEFAB7
:1002900008B500200346024600900121022000F02C
:1002A00074FB08BD38B5FF4D0024FF48AC81EC81DC
:1002B0002C8240698047E861FF202872FB480023B8
:1002C0001A46046044608460C4600461012068725E
:1002D0002C70AC70EC7001460220009400F055FBCD
:1002E000012038BD38B5EF4D02282C7A22460DD0BA
:1002F000052810D0A24208BF38BD002003460246A0
:100300002146009000F041FB2C7238BD022914BF39
:1003100001240224EEE7022914BF04240824E9E79B
:1003200008B5009313460A460146012000F02DFB54
:1003300008BD08B50346009103220221012000F008
:1003400024FB08BD38B500240EF02EFE002818BF8F
:10035000012413F02DFC002818BF0224D148017895
:10036000A14208BF38BD047000200346022100905E
:100370002246084600F009FB38BD38B5C94D044691
:100380006878A04208BF38BD07F00AFA6C70002CEC
:100390000CBF0521062100200346024600900220E2
:1003A00000F0F3FA38BD08B500210B460246009173
:1003B0000721022000F0E9FA08BD08B500210B462C
:1003C000024600910821022000F0DFFA08BD08B5BE
:1003D00000210091002814BF0122002200230321E4
:1003E000022000F0D2FA08BD08B5002003460246FC
:1003F00000900421022000F0C8FA08BDA94B002893
:10040000DA7814BF01210021D9708A4208BF7047F1
:10041000021C18BF012208B50020034600900A21E3
:10042000022000F0B2FA08BD9E4B00289A7814BF53
:100430000121002199708A4208BF7047021C18BF31
:10044000012208B50020034600900921022000F097
:100450009CFA08BD93488078002818BF0120704797
:1004600001209049087170478E48007970478D4986
:100470000020087170472DE9F0410446012700254E
:1004800003F00700874E8846012804BF0020308211
:1004900048D0022846D1308A834904280BD200284C
:1004A00018BFB06902D148688047B06110F8011BDD
:1004B0002170B0612FE0062809D288688047318A10
:1004C00080B2C1F10501C900C840207023E00828AE
:1004D00008D208698047318AC1F10701C900C840C4
:1004E000207018E00C2808D248698047318AC1F191
:1004F0000B01C900C84020700DE00E2808D28869A1
:100500008047318AC1F10D01C900C840207002E066
:10051000FF2020700027308A401C80B230820E28D5
:1005200028BF012588F800503846BDE8F08130B476
:1005300003F007000024DFF86CC1012804BFACF809
:100540000C40ACF810401BD013F0070F18D1554BDE
:10055000BCF810009B89022805D2120242EA13223D
:10056000ACF80C2009E003449D1EB5F5806F04DA59
:10057000DCF81C502B4403F8022C401CACF8100093
:100580000C7030BC00207047F0B40746002003F028
:100590000704444D0646012C04BF2E826E6125D00F
:1005A000DFF800C1022CBCF80EC003D013F0070F17
:1005B0000DD01BE02A8A0CEB0203B3F5806F15D235
:1005C000E869C05C3870501C288201200EE01202DD
:1005D00042EA1C22EA816B69012B05D1B2F5806FDA
:1005E00024BF40F2FF32EA815A1C6A610E70F0BCEF
:1005F000704738B503F0070000240D46012809D1E3
:10060000284800231A460482848119460220009457
:1006100000F0BBF92C70002038BD2DE9F04182B00C
:1006200017460C0005464FF0000800F003812678BD
:100630001F49012E18BF022E05D0032E5BD0002EBD
:1006400000F0F880BEE06078421E05EB001000F874
:10065000102C607805EB001000F80F6C08686288B9
:10066000438DC08C5A4392FBF0F0627805EB021286
:1006700022F80E0C0868A288018D808C514391FBF2
:10068000F0F0617805EB011121F80C0C6178A0798C
:1006900005EB011121F80A0C6178207A05EB0111B4
:1006A00008E0000000840010408A0200C0890010A9
:1006B000F488001021F8080C6178607A05EB0111CC
:1006C00021F8060C6178A07B05EB011121F8040CE0
:1006D000E0790528607805EB001010F8021C0CBFCB
:1006E00041F0010121F0010100F8021C002E69D146
:1006F00002B0BDE8F0816078421E05EB001000F802
:10070000102C6278032005EB021202F80F0C086827
:100710006288438DC08C5A4392FBF0F0627805EBFF
:10072000021222F80E0C0868A288018D808C5143B9
:1007300091FBF0F0617805EB011121F80C0C07F04A
:100740002FF8052821D107B36178B87905EB01119D
:1007500021F80A0C6178387A05EB011121F8080CB0
:100760006178787A05EB011121F8060CF8790528F3
:10077000607805EB001010F8021C0CBF41F001017D
:1007800021F0010100F8021C17E0607805EB001071
:1007900020F80A8C607805EB001020F8088C60784F
:1007A00005EB001020F8068C607805EB001010F8BF
:1007B000021C21F0010100F8021C607805EB00101A
:1007C00020F8048C012E18BF032E06D00DF06AF914
:1007D000002804BF02B0BDE8F08106F0E1FF052863
:1007E0001CBF02B0BDE8F081012E04BFC0208DF80F
:1007F000000005D0022E0CBFC220C1208DF80000E1
:1008000060788DF8010060880123000A8DF80200ED
:10081000A0788DF80300A0880622000A8DF8040055
:1008200020798DF805006946072011F040FF02B0DD
:10083000BDE8F08185F8008085F80180A5F8028088
:10084000A5F80480A5F80680A5F80880A5F80A8018
:10085000A5F80C80A87B20F00100A87302B0BDE8C9
:10086000F0814F490020487170474D4840797047EA
:100870004B48C069007D7047002818BF01204849D7
:1008800088717047464880797047002818BF01205A
:100890004349C87170474248C07970474049488110
:1008A00070473F48408970473D4901204871704773
:1008B0003C4B03EB80004254704730B585B0017863
:1008C0008DF8001042788DF8012082788DF8022092
:1008D000C2788DF8032002798DF8042042798DF8D2
:1008E000052080798DF80600002001252C4C8DF81C
:1008F000070002900390522905D1A07988B9A5710B
:1009000006F048FB60819DF80000462801BF9DF875
:1009100001000128E079002803D1E57106F03AFBD7
:10092000608107F071F801280CD10DF093FB0128CC
:1009300001BF9DF8000046289DF80100012804BF72
:1009400005B030BD68460DF08AFB05B030BD70477C
:100950001349002818BF0120487270471048407A98
:100960007047012818BF70470F48012904BF41682C
:1009700041F4007105D0002906BF416821F40071DF
:100980007047416070470948704708B5DDF808C0F6
:10099000CDF800C0DFF818C0DCF800C0E04708BDA3
:1009A00000840010C089001000100040D87F0200B1
:1009B000408A02007047F648D0F8500300F001006A
:1009C000704770B5F24D04000AD002F0B9FA38B998
:1009D000D5F8500310F0010F1CBF0020A86005D10E
:1009E0000120A860002C08BF00202DD0D5F860039E
:1009F00010F0010F0BD1D5F8600340F00100C5F8ED
:100A00006003D5F8600320F00100C5F86003E148F9
:100A1000016811F0010F07D1016841F00101016087
:100A2000016821F00101016004F088FB00281CBF6F
:100A3000D5F8500310F0010F05D004F079FB002821
:100A400018BF04F087FB0120286270BDD048006AFF
:100A5000002818BF01207047C00000F1804000F559
:100A6000A04041637047C00000F1804000F5A04005
:100A7000006B00F4807070471021C00000F18040CE
:100A800000F5A0404163704730B48209C24B00F0CA
:100A90000F0000EB400053F822404FF4847505EB43
:100AA0008015D1F800C044F805C053F822204FF457
:100AB000867303EB80104968115030BC704782097F
:100AC000B54850F82200D0F8402161F30D22C0F85B
:100AD00040217047B049800951F82000D0F840010A
:100AE000C0F305207047AA49D1F8402160F31742AE
:100AF000C1F840217047A648D0F84001C0F3074034
:100B000070474FF4A072C0F3011302EB8312DFF8B9
:100B100088C200F00F03800903EB43035CF8200058
:100B2000002900EB8310815814BF41F0010121F02E
:100B3000010181507047984A810952F8212000F044
:100B40000F0101EB410102EB8111C0F301104FF4E1
:100B5000A07202EB8010085800F0010070478E4A26
:100B6000810952F82110D1F8E01100F00F000122A4
:100B700001F0070102FA00F0084018BF0120704799
:100B80004FF4A072C0F3011302EB8312DFF808C226
:100B900000F00F03800903EB43035CF820000029F9
:100BA00000EB8310815814BF41F0020121F00201D3
:100BB00081507047784A810952F8212000F00F01D6
:100BC00001EB410102EB8111C0F301104FF4A0725F
:100BD00002EB80100858C0F34000704781096F4A4B
:100BE00001EB410102EBC10100F00F0201EBC20178
:100BF000C0F3011051F820007047684982091CD0E9
:100C00000122B2EB901F18BF704765480068C0F31F
:100C10000800886163480268C2F308420A620068FB
:100C2000C0F30800486260480268C2F308428A6262
:100C30000068C0F30800C86270475548D0F8242106
:100C4000C2F308020A60D0F8E421C2F308428A60C5
:100C5000D0F8E421C2F30802CA60D0F8A422C2F39B
:100C600008420A61D0F8A402C0F308004861704746
:100C70002DE9F0030122830900F00F01C0F3011CEC
:100C8000C0F3011622EA0C0C00290BBF02254D1EF1
:100C900000224FEA0C124FF0080404EBCC043F4F43
:100CA00003EB430C07EBCC0C0CEBC101DFF8E88045
:100CB00051F826604FF4587C58F823100CEBC5050A
:100CC00051F805C000F00F001CF0010F00EB4000D0
:100CD0004FF4927C0CEB801C40F2FF1729D02C487B
:100CE000D0F844034FF032090005000D06FB09F669
:100CF0000EBF0120B6FBF0F0401CFF2888BFFF208C
:100D00004E594FF0FF0909FA04F9C0B226EA090664
:100D1000A0403043485158F8230050F80C3007FAEF
:100D200002F123EA0102114340F80C10BDE8F00380
:100D3000704751F80C0007FA02F39843C6F3080312
:100D400003FA02F2104341F80C00BDE8F0037047CB
:100D500010B50020FFF78CFF0120FFF789FF11205D
:100D6000FFF786FF0220FFF783FF1220FFF780FFC7
:100D70004020FFF77DFF4120FFF77AFF5120FFF76A
:100D800077FF4220FFF774FFBDE8104052206FE765
:100D900000500040605B0040F47F0200748A001045
:100DA00024590040E4590040A45A00402DE9F0477E
:100DB00007464FEA9016FF480D0050F826404FF0C6
:100DC00000002062C4F84001C4F80002C4F84002E8
:100DD000C4F8C002C4F8000308BFBDE8F087286863
:100DE00020606868606061680120002908BF606059
:100DF000F1490860A868A060E868E0602869A0611F
:100E00006869E061E8696062286AE06221206063E5
:100E1000E063686A2064A86A6064E86AA064286B7A
:100E2000E064686B2066A86BA066E86B6067286C5E
:100E3000A067686CE067A86CC4F88000E86CC4F830
:100E40008400286DC4F88800686DC4F88C00A86D13
:100E5000C4F89000E86DC4F8A400286EC4F8A80097
:100E6000686EC4F8AC00A86EC4F8B000E86EC4F8B0
:100E7000B400286FC4F8B800686FC4F8BC004FF025
:100E8000FF30C4F8E400A86FC4F8F000E86FC4F8BD
:100E9000F400D5F88000C4F8FC004FF4107205F19E
:100EA000840104F580700DF0DFF8D5F8C40220F459
:100EB0008030C4F84003D5F8C802C4F84C03D5F814
:100EC000CC02C4F85003D5F8D002C4F85403D5F8C6
:100ED000D402C4F85803D5F8D802C4F85C03002043
:100EE00005EBC002D2F8DC3204EBC001C1F860337C
:100EF000D2F8E022C1F86423401C0328F0DBD5F8C7
:100F0000F402C4F87803D5F8F802C4F87C03D5F8E5
:100F1000FC02C4F80004D5F80003C4F80404D5F8B2
:100F20000403C4F80804D5F80803C4F80C04D5F881
:100F30000C03C4F810040022002104EBC20805EBE6
:100F4000C20000EB8103D3F8109308EB810CCCF8BE
:100F50003094D3F83893CCF85894D3F86033CCF865
:100F60008034491C0229ECDB05EB8200D0F8883381
:100F700004EB8201C1F8A834D0F89C33C1F8BC342A
:100F8000D0F8B003C1F8D004521C052AD4DB002EDF
:100F900014BF8A488A48006830F0FF0105D1D4F8B0
:100FA000901060F30301C4F89010D4F8500320F0BF
:100FB0000100C4F85003D4F8600320F00100C4F825
:100FC0006003D4F8680320F00100C4F86803D4F883
:100FD000700320F00100C4F870033846BDE8F04704
:100FE0000BE6784800787047764840787047754936
:100FF000887070477348807870477349D1F85423DC
:1010000060F30902C1F8542370476F48D0F85403C5
:10101000C0F3090070476B494860704769484068F1
:1010200070476849886070476648806870476648BE
:10103000D0F8440340F25712C0F30B0153003C2098
:10104000A1F2571CBCF1000F4CBF521A6246A1F22C
:10105000AE2CBCF1000F4CBF591AA1F2AE21914247
:10106000B8BF1E2070475749C86070472DE9F05F30
:1010700004460027384614F4803F18BF012014F4BA
:10108000003F18BF40F0040014F4802F18BF40F058
:10109000020014F4002F18BF40F0100014F4001FD9
:1010A00018BF40F0400014F4800F18BF40F0080053
:1010B00014F4000F18BF40F02000DFF80881DFF8BB
:1010C000089198F8021010EA0105D9F8400320F4BD
:1010D0008030C9F8400336D0D8F80C60D9F84803FE
:1010E000002740F00100C9F84803D9F8480320F070
:1010F0000100C9F84803D9F8400340F48030C9F82A
:1011000040034FF0630ADFF8C4B016E004F05DF965
:101110005046D9F8481311F0010F0AD0D9F844030A
:101120000005000D1CBFBBFBF0F0C8F8080001274C
:1011300003E0011EA0F10100EBDC301EA6F1010668
:1011400001DD002FE2D0D9F8500320F00100C9F8EA
:101150005003D9F8600320F00100C9F86003D9F802
:10116000680320F00100C9F86803D9F8700320F083
:101170000100C9F87003164A106820F001001060E1
:101180001448016821F00101016013490B6823F044
:1011900001030B60EFB315F0010F05D0D9F8503300
:1011A00043F00103C9F8503315F0040F1AD0D9F8F1
:1011B000703313E0F47F020004580040F0FE040096
:1011C000E0FE0400208400100050004080F0FA028D
:1011D000605B0040685B0040705B004043F00103CF
:1011E000C9F8703315F0020F05D0D9F8603343F019
:1011F0000103C9F8603315F0100F05D0D9F8683332
:1012000043F00103C9F8683315F0400F05D00B68AF
:1012100000E01CE043F001030B6015F0080F03D061
:10122000116841F00101116015F0200F03D0016831
:1012300041F00101016088F80150012088F80000A8
:10124000D9F8400340F48030C9F8400321E0002081
:1012500088F80100ADB1022088F80000D9F84003F9
:1012600040F48030C9F84003D9F8480340F0010049
:10127000C9F84803D9F8480320F00100C9F8480329
:1012800007E0D9F8401321F48031C9F8401388F8F9
:101290000000D9F8400114F0010F20F00D0018BF34
:1012A00040F0010014F0040F18BF40F0040014F0E7
:1012B000020F18BF40F00800C9F84001D9F8000239
:1012C00014F0100F14BF40F0010020F00100C9F825
:1012D0000002D9F8400214F0200F14BF40F00100C2
:1012E00020F00100C9F84002D9F8C00214F0400F04
:1012F00014BF40F0010020F00100C9F8C002D9F885
:10130000000314F0800F14BF40F0010020F0010032
:10131000C9F80003FF4814F4805F016814BF41F06E
:10132000010121F001010160FB4814F4005F016834
:1013300014BF41F0010121F001010160F74814F4EC
:10134000804F016814BF41F0010121F001010160EB
:10135000F34814F4004F016814BF41F0010121F07B
:1013600001010160EF49086814F4807F20F00D004E
:1013700018BF40F0010014F4806F18BF40F0040063
:1013800014F4007F18BF40F0080008600020FFF749
:101390006FFC0120FFF76CFC1120FFF769FC0220B5
:1013A000FFF766FC1220FFF763FC4020FFF760FCAC
:1013B0004120FFF75DFC5120FFF75AFC4220FFF768
:1013C00057FCBDE8F05F522052E42DE9F04F84094C
:1013D00000F00F0343EA8411D34D4FEA911CC1F38F
:1013E000011855F82C6003EB430C06EB8C174FF4F7
:1013F000A07606EB8818024657F80870002017F010
:10140000010F10D141F010018F09C1F3011155F8FE
:10141000277006EB811107EB8C17795811F0010F3B
:1014200008BFBDE8F08F55F82410CF6907F0080811
:1014300001EB8C17D7F80011DFF8F0A204EB440C95
:101440000AEBCC0C1FFA81F902F00F05002103EB27
:1014500043060CEBC505C2F3011A43EA011242EA46
:101460008412DFF8C4C2C2F3811B5CF82BC0C2F344
:10147000011B4FF4A0720CEB861C02EB8B125CF884
:10148000022012F0010F1AD007EB811C55F82A2018
:10149000DCF844B1B8F1000FCBF3080B0EBF4FF0EE
:1014A000000CDCF844C1CCF3023C02EBC20E0EEBA4
:1014B000021200EB42000BFA0CF202FB0900491C7D
:1014C0000229CAD3BDE8F08F2DE9F0418509AA01B0
:1014D00095489309002450F82300D0F8401111F0EA
:1014E000010F34D0914E03EB430306EBC30302F02C
:1014F0000F0603EBC603C2F3011211F0040F53F8F9
:101500002220D0F8003101F0080C9EB2D0F844310E
:10151000C3F3080318BFC1F30744C769C1F305212A
:1015200017F0080F1ABFD0F84401C0F302300020B2
:10153000BCF1000F18BF491C03FA00F001FB00408A
:1015400002EBC201704301EB021100EB41040120E8
:1015500040EA8510FFF739FF0646022040EA851071
:10156000FFF733FFA1190844BDE8F08110B5002052
:10157000FFF7AAFF4FF47A7148434CF25031B0FBA9
:10158000F1F010BD6A484068C0F30C00704770B5B8
:1015900004460020FFF798FF05464020FFF794FF20
:1015A00035B3634BB0B141F288310844A84211D938
:1015B000421B186800F01F0104FB01F000EBC00C97
:1015C0000CEB0010B2EB400F04D932204843B2FBC1
:1015D000F0F0441CB4F5005F28BF41F6FF7402D25E
:1015E000002C08BF0124586864F30C00586070BDDB
:1015F000B4F5005F28BF41F6FF7402D2002C08BF8B
:1016000001244C48016864F30C01016070BD2DE9B0
:10161000F041474F0646386810F01F0508BF012506
:101620000020FFF751FFDFF810810446002E18BF9D
:10163000002C3FD0414900204A68002A08BF0122FF
:101640003309B3FBF2F1D7F850C31CF0010F1BD0E4
:10165000B3EB420F1DD33A49B1FBF2F3B6FBF2F103
:101660000A09B3FBF4F1102928BF0F218A4298BF61
:10167000114639B1012984BF01FB1430B0FBF1F0F0
:1016800007D908E0012109E0B8FBF6F2A24288BFC1
:10169000101B0029F6D0102988BF0F21D7F85C2332
:1016A00061F30302C7F85C2332216943B0FBF1F018
:1016B000FFF76DFF7868C0F30C00684300EBC001D2
:1016C00001EB001004EB4000B8FBF0F0BDE8F08146
:1016D00070B5174D0024D5F8500310F0010F08D055
:1016E0001648D5F85C13406801F00F014843040127
:1016F0002EE00020FFF7E8FE02462868696800F047
:101700001F00C1F30C01414301EBC10000EB0110CC
:1017100018E00000005A0040405A0040C05A004003
:10172000005B004040590040F47F0200748A0010C2
:1017300000500040045800400008AF2F20840010E3
:1017400080F0FA0212EB40001CBFFD49B1FBF0F43F
:10175000204670BD002818BF0120FA49D1F85C234B
:1017600060F30302C1F85C237047F648D0F85C03CD
:1017700000F00F0070478109F34A00F00F0000EB02
:10178000400052F821104FF4807202EB801008588C
:10179000EE4980B2B1FBF0F0401C400870472DE9E3
:1017A000F041E94B8209DFF8A4C353F8223000F07E
:1017B0000F0731B1BCFBF1F1491C4A08B2F5004FEB
:1017C00001D347F6FF72BCFBF2F1491C4D08D3F878
:1017D00080104FEA520C01F00704D3F88010DA4B66
:1017E0004FEA9018C1F3031600F00F0153F82830A8
:1017F00001EB410103EB81112FB3D1F80431F61C49
:1018000074439BB2A2EB4404D1F8006124F00104BC
:1018100062F30F06C1F80061D1F800216CF31F429A
:10182000C1F80021D1F8042163F30F02C1F80421AB
:10183000D1F8182164F30F02C1F8182101F0C9F89A
:101840002846BDE8F081F61CACF10E037443A3EB0F
:101850004404D9E710B48309BB4C10F00F0F00F01B
:101860000F0054F8233000EB40004FF4807404EB79
:10187000801018584FEA10401CBF10BC7047D3F8B6
:1018800080C00CF00704D3F880C0401AD3F80411CC
:10189000CCF3031C60F30F01C3F80411012A1CBF31
:1018A00010BC70470CF103016143A0EB4100D3F879
:1018B000181120F0010060F30F01C3F8181110BCDB
:1018C00070478109A04A00F00F0000EB400052F879
:1018D00021104FF4807202EB80100858000C704702
:1018E000830910F00F02984850F8230002EB4203DE
:1018F00000EB8313D3F800C161F31F4CC3F800C1A0
:1019000018BF7047D0F8802002F00703D0F880207D
:10191000C2F30312D21C5A430E39A1EB4202D0F893
:10192000043122F0010261F30F03C0F80431D0F852
:10193000181162F30F01C0F818117047824A81092B
:1019400052F8212000F00F0101EB410102EB81115F
:10195000C0F301104FF4A27202EB80100858C0F3DC
:1019600008007047F0B4784B840900F00F0C53F86E
:1019700024300CEB4C0503EB8516C0F30112D6F8AE
:101980001C5106EB82164D1BD6F8447161F3080713
:10199000C6F844714CEA021141EA841101F00F02C9
:1019A000C1F3011101EB4201694A03F5C07352F81A
:1019B00021104A08C90753F822C0C90E40F2FF148B
:1019C0008C402CEA040CAD1EC5F3080404FA01F1A6
:1019D0004CEA010143F82210F0BC00F0FABF830981
:1019E00000F00F01C0F30112574850F82300C369FB
:1019F00001EB410100EB811013F0100FD0F828111A
:101A000000EB8210C9B2D0F84401C0F3080008BF4F
:101A10000021401A0004000C08BF01207047030990
:101A20001B0203EB810101F1405101F50031000778
:101A3000C00E0B6802FA00F01843086070470209F4
:101A4000120202EB810101F1405101F50031000762
:101A50000968C00E21FA00F000F00300704770B46E
:101A6000DFF8E4C0820900F00F035CF8225003EBBA
:101A70004303C0F301104FF4A87605EB831506EB82
:101A800080160C68AC515CF82220496802EB831286
:101A90004FF4AA7303EB8010115070BC704730B440
:101AA000DFF8A4C0820900F00F035CF8224003EBCA
:101AB0004303C0F301104FF4A87504EB831405EB46
:101AC000801564590C605CF8222002EB83124FF4FD
:101AD000AA7303EB80101058486030BC70471A4955
:101AE00010B4820983B051F8222000F00F0101EBFD
:101AF000410102EB8111C0F301104FF4A87202EB17
:101B000080128A5800924FF4AA7202EB8010085893
:101B10000190002001466A4601234FEA511C01F062
:101B20001F0452F82CC003FA04F41CEA040F18BF77
:101B3000401C491C2629F0D303B010BC704700009C
:101B40000008AF2F00500040F47F0200A086010083
:101B5000FC7F020030B4002210F00F0F06D000F01E
:101B60000F02C0F3011303EB4202521EFE4B800929
:101B70004FF4866553F8204005EBC205D1F800C04C
:101B800044F805C053F8200040F2344303EBC2028E
:101B90004968815030BC704710B4002210F00F0F1C
:101BA00006D000F00F02C0F3011303EB4202521EF5
:101BB000ED4B80094FF4866453F820C004EBC20457
:101BC0005CF804C0C1F800C053F8200040F2344370
:101BD00003EBC2028058486010BC7047E348C068FD
:101BE00070470022E049830951F82310CB6913F0B4
:101BF000080F0ED000F00F0202EB420201EB82113F
:101C0000C0F301104FF4A27202EB80100858C0F329
:101C1000023210467047DFF850C310B482095CF8F6
:101C20002230DC6944F00804DC615CF8223000F00A
:101C30000F0202EB420203EB8212C0F301134FF4D6
:101C4000A27000EB8310135861F30E33135010BCD5
:101C500070470022C449830951F82310CB6913F05F
:101C6000080F0ED000F00F0202EB420201EB8211CE
:101C7000C0F301104FF4A47202EB80100858C0F3B7
:101C8000024210467047B84A830952F8233000F0E8
:101C90000F0202EB420203EB8212C0F301134FF476
:101CA000A47000EB8310135861F312431350704774
:101CB000042988BF70472DE9F0030027DFF8A882C8
:101CC000840958F82430DA69C0F3011C12F0080FB7
:101CD0004FF4A27202EB8C1C00F00F0202EB4202E6
:101CE00005D003EB821555F80C50C5F30237DD69BA
:101CF000002615F0080F4FF4A475C0F3011005EB92
:101D0000801504D003EB82104059C0F30246C91B72
:101D10007018042803DD081A011D042003E00028C0
:101D2000BCBF014400207E18D96941F00801D96187
:101D300058F8241001EB821151F80C3066F30E3381
:101D400041F80C3058F8241001EB82114A5960F325
:101D500012424A51BDE8F0037047834A80090029C6
:101D600052F82000816914BF41F0080121F00801F8
:101D7000816170477C49800951F820008069C0F377
:101D8000C0007047784A8009002952F82000816914
:101D900014BF41F0020121F00201816170477249D4
:101DA000800951F820008069C0F3400070476E4BF5
:101DB000820953F8223000F00F0202EB420203EBDB
:101DC0008212C0F301104FF4A67303EB8010115080
:101DD0007047654A810952F8212000F00F0101EB9C
:101DE000410102EB8111C0F301104FF4A67202EB26
:101DF0008010085870475D4A10B4D2F8400110F0C6
:101E0000010F0BD0D2F84C01D2F844110028C1F3D5
:101E100002311EBF0029C043C2F84C01012300203B
:101E200003EB43018C0104EB801101F1804101F5CA
:101E3000A041D1F8402112F0010F0CD0D1F84C2173
:101E4000D1F844C1002ACCF3023C1EBFBCF1000F04
:101E5000D243C1F84C21401C0228E4D35B1C032B65
:101E6000DDD310BC704700223F49830951F823108D
:101E7000CB6913F0080F0ED000F00F0202EB420204
:101E800001EB8211C0F301104FF4A47202EB801039
:101E90000858C0F3005210467047012070472DE9E2
:101EA000F04F82B0022ADDE90B49DDF8348026BF0D
:101EB000921E4FEA520C4FF0000C022B26BF9A1EC6
:101EC000530800232A4AA2FB04421709B8F1000F65
:101ED00014BF012200220192B9F1020F16BF5FEA7E
:101EE00009024FF0010B4FF0000B82091E4C00F06D
:101EF0000F0606EB460554F822404FF4B27E04EB81
:101F0000851AC0F301140EEB841ECDF800A05AF818
:101F10000EA061F35C6A6BF3186A05D167F3174A88
:101F200063F3CA1A6CF3C60A019969F3420A61F3B2
:101F3000000A0099DFF8309041F80EA059F82220ED
:101F40004FF4B471C0F3011A01EB8A1102EB851250
:101F5000B8F1000F555814BF45F0800525F08005F5
:101F60005550012506E00000F47F020000500040BB
:101F7000CDCCCCCCB5EB901F1CBF02B0BDE8F08F30
:101F800004EB4600FC4951F82020183111F820805C
:101F900006EB4600800100EB841000F1804000F564
:101FA000A040D0F85049F549FF26A1FB029149080D
:101FB000A1EB81094A44D2009640FFB297404FEA14
:101FC0008802002003F00F0393400CF00F0C4FF039
:101FD0000F090CFA02FC09FA02F24FEA810805FA2D
:101FE00000F1214222D008EBC00101F1804101F54E
:101FF000A041D1F8809C29EA060949EA0709C1F8FD
:10200000809C810001F1804101F5A041D1F8A89C9C
:1020100029EA020949EA0309C1F8A89CD1F8BC9C45
:1020200029EA020949EA0C09C1F8BC9C401C0528B0
:10203000D5D302B0BDE8F08F2DE9F04F84B0DDE9D3
:102040000EA8DDF834C0B8F1000F14BF012400243D
:102050000294BAF1020F16BF5FEA0A044FF0010BB7
:102060004FF0000B8409C64D00F00F0707EB470641
:1020700055F824504FF4B27E05EB8619C0F30115D4
:102080000EEB851ECDE9009E59F80E9061F35C6958
:102090006BF318697ED002996AF3420961F3000973
:1020A000DDE9001BDFF8D8A241F80B904FF4B471C2
:1020B0005AF82440C0F3011901EB891104EB86148E
:1020C000B8F1000F665814BF46F0800626F080066F
:1020D00066500126B6EB901F1CBF04B0BDE8F08F20
:1020E00005EB4700A449A74C51F8201054F82040B4
:1020F00007EB4700800100EB851000F1804000F500
:10210000A040D0F850099D4DFF26A5FB01756D0834
:10211000A5EB850739444FEAC109009006FA09FE8C
:1021200000200F21A400A1404FEA850B012505FAEC
:1021300000F6009D2E4241D01568022D26BFAD1E2F
:102140006D080025121D1E68022E26BFB61E7608D9
:1021500000265CF8048B8C4FA7FB08874FEA0758D2
:102160000BEBC00707F1804707F5A047D7F880AC15
:102170004FEA18682AEA0E0A08FA09F84AEA080833
:10218000C7F8808C870007F1804707F5A047D7F88C
:10219000A88C00E018E006F00F0628EA0108A64027
:1021A00048EA0606C7F8A86CD7F8BC6C05F00F051E
:1021B0008E43A5403543C7F8BC5C1B1D401C052859
:1021C000B4D304B0BDE8F08F1168022926BF891E80
:1021D00049080021D3F800B0BBF1020F26BFABF1D4
:1021E000020B4FEA5B0B4FF0000BCDF80CB0DFF8A1
:1021F00098B1DCF800E0ABFB0EEB4FEA1B1B6BF376
:102200001749DDF80CB06BF3CA1961F3C60942E750
:102210002DE9F00F5A4D84094FF4B27955F8244056
:1022200000F00F0505EB450604EB8614C0F301161C
:1022300009EB8619DDE9098754F80940DDF820C06B
:10224000C4F3436BC4F3410904F0010A002918BF29
:10225000C1F800B0B8F1000F18BFC8F80090002F07
:1022600018BFC7F800A081094FF001085BD0B8EB98
:10227000901F1CBFBDE8F00F704706EB45003E49BC
:10228000404C51F8201054F820B005EB4500800177
:1022900000EB861000F1804000F5A040D0F850A976
:1022A000364C0020A4FB015464084FEA8409A4EBD7
:1022B00084042144CF004FEA8B0508FA00F111EAAB
:1022C0000A0F2AD009EBC00101F1804101F5A041BC
:1022D000D1F8801CF940840004F1804404F5A04446
:1022E000C9B2D4F8A86CD4F8BC4CEE4006F00F0686
:1022F000EC4004F00F041AB16400A41C42F8044B33
:102300001BB17400A41C43F8044BBCF1000F04D0B3
:1023100001EB810189004CF8041B401C0528CCD33B
:10232000BDE8F00F7047C4F30740C4F3C311C4F312
:10233000C30412B16400A41C146013B14900891CC9
:102340001960BCF1000F04BFBDE8F00F704700EB4F
:1023500080008000CCF80000BDE8F00F7047084A0C
:102360008009002952F82000C16914BF41F0200102
:1023700021F02001C161704714800200ABAAAAAA13
:10238000F47F02002C800200CDCCCCCCF749800930
:1023900051F82000C069C0F34010704730B490B0CD
:1023A00000224FF48045EC466C1001E0082A05D26B
:1023B000531C03EB8303B5FBF3F304E0D31F03EBE0
:1023C0008303B4FBF3F35B1A48BF5B424CF8223043
:1023D000521C102AEAD30023009C01215CF8212022
:1023E000A242BCBF14460B46491C1029F6D300F08C
:1023F0000F0202EB42014FEA8111C0F3011C01EB15
:102400008C1101F18041840901F5A0412AD00124F9
:10241000B4EB901F1EBF10B030BC70470CEB4200F5
:10242000D1F850C9D24A12F820200F25910000207F
:102430008D4003F00F028A4004FA00F111EA0C0FFC
:102440000AD0810001F1804101F5A041D1F8D03CD2
:10245000AB431343C1F8D03C401C0528ECD310B06B
:1024600030BC7047D1F8680163F30300C1F868011C
:1024700010B030BC704781091CBF0020704700F0CD
:102480000F0101EB41018901C0F3011001EB801044
:1024900000F1804000F5A040D0F8680100F00F0086
:1024A000082834BF401CC01F00EB800034BF4FF42D
:1024B00080414FF40051B1FBF0F070472DE9F00777
:1024C0004FF0010991B0B9EB901F1EBF11B0BDE8EC
:1024D000F007704700F00F02C0F3011000EB420359
:1024E00002EB4202920102EB8010DFF884C200F19D
:1024F000804000F5A0405CF82330D0F850A90F20B0
:102500004FEA83084FF0000C4FF480466C4600FA07
:1025100008F709FA0CF010EA0A0F36D051F8043B1C
:1025200000204FF4005501E0082805D2421C02EBC0
:102530008202B6FBF2F204E0C21F02EB8202B5FB9C
:10254000F2F2D21A48BF524244F82020401C102810
:10255000EAD30025009B012054F820209A42BCBFFA
:1025600013460546401C1028F6D34FEA8C0000F1B4
:10257000804000F5A040D0F8D02C05F00F03BA43FE
:1025800003FA08F31A43C0F8D02C0CF1010CBCF18B
:10259000050FBED311B0BDE8F007704770B4012439
:1025A000B4EB901F1CBF70BC704700F00F02C0F36B
:1025B000011000EB420302EB42029201DFF8B0C1CE
:1025C00002EB801000F1804000F5A0405CF8233061
:1025D000D0F850C900209B004FF480456E1004FADB
:1025E00000F212EA0C0F16D0820002F1804202F5CE
:1025F000A042D2F8D02CDA4002F00F02082A34BFF1
:10260000521CD21F02EB820234BFB5FBF2F2B6FBC2
:10261000F2F241F8042B401C0528E0D370BC70474F
:1026200000F00F02C0F3011303EB4202504B80098C
:10263000A3F1380C53F822205CF820000123002974
:10264000D0F8101403FA02F214BF11439143C0F8FA
:102650001014704700F00F01C0F3011303EB4101A8
:10266000434B0022800913F82110383B53F8200017
:10267000D0F81004012303FA01F1084218BF012227
:102680001046704770B410F0300F14BF01230023C0
:102690008609DFF8D8C000F00F024FEA90104FF41F
:1026A0009A7502EB42025CF820004FF0010405EB42
:1026B000821214D085584FEA430C5B420CEB430363
:1026C0009B1C04FA03F35B1E03FA0CF4194025EA81
:1026D000040401FA0CF12143815070BC70470029B9
:1026E000815804FA03F31ABF194381509943F3D078
:1026F00070BC704730B410F0300118BF012184095C
:102700004FEA9013194D00F00F0000EB40004FF41A
:102710009A7202EB801255F823004FF0010C0CD096
:1027200082584800C240494200EB4100801C0CFA2C
:1027300000F0401E30BC1040704780580CFA01F188
:10274000084018BF012030BC7047084B800953F87F
:1027500020C0CCF8741053F820C01168CCF8781061
:1027600053F820005168C16770470000F47F0200F1
:102770002C800200C0490028D1F8AC0014BF40F002
:10278000020020F00200C1F8AC007047BA490028EE
:10279000D1F8AC0014BF40F0010020F00100C1F8F6
:1027A000AC007047B448D0F8E000B4490968084369
:1027B0007047B149C1F8E400B14908607047AE48BC
:1027C000D0F89800AF49096840EA4100704770B4FA
:1027D0004FEA0075860900F00F044FEAD565C0F393
:1027E0000110A5F1020502F0010C05444FEA8C33FB
:1027F0004FEA520012D001EB41017CB305EB4502D8
:10280000D20002EB8C3202EB810101EB800000F17F
:10281000405000F5C030406A70BC704701EB410287
:1028200002EB01117CB198226A4302EB8C3202EB7D
:10283000810101EB800000F1405000F58030D0F8BC
:102840008C0E70BC704703EB810101EB800000F13E
:10285000405000F58030006870BC7047FFE703EB24
:10286000810101EB800000F1405000F5C0300068AC
:1028700070BC7047F0B44FEA0076870900F00F048F
:102880004FEAD666C0F30110A6F1020602F0010C71
:1028900006444FEA8C354FEA520012D001EB410159
:1028A0007CB306EB4602D20002EB8C3202EB8101D4
:1028B00001EB800000F1405000F5C0304362F0BCF5
:1028C000704701EB410202EB01117CB19822724387
:1028D00002EB8C3202EB810101EB800000F14050F1
:1028E00000F58030C0F88C3EF0BC704705EB8101EC
:1028F00001EB800000F1405000F580300360F0BC37
:102900007047FFE705EB810101EB800000F14050CB
:1029100000F5C0300360F0BC7047830900F00F027F
:10292000C0F301100CD0002A08BF574805D0012A77
:1029300017D000280CBF5548554800EB8130704730
:10294000002A08BF4FF04050F7D0012A04D00028D9
:102950000CBF50485048F0E7002814BF4F4850487B
:10296000EBE7002814BF4F484F48E6E710B44FEAA2
:10297000007C840900F00F034FEADC6CC0F3011007
:10298000ACF1020C604410D0002B08BF47481CD0AB
:1029900000EB4000C00000EB813002EB420100EB95
:1029A0008100434910BC08447047002B08BF4148D0
:1029B0000BD09823584300EB813002EB420101EB2E
:1029C000021100EB81003C49ECE710BC00EB8130C8
:1029D00070472DE9F0074FEA901C00F00F043748CC
:1029E00004EB440150F82C0000F5C07300EB81109B
:1029F000D0F800014FF47A7280B2B2FBF0F100FB24
:102A00001120002818BF01200D182D4F002040F282
:102A1000FF1644EA001141EA8C1101F00F02C1F3E4
:102A2000011101EB420157F821104A08C90753F878
:102A30002280C90E03EB820228FA01F8D2F80CA01A
:102A4000A8EB050906FA01F8C9F308092AEA080AF9
:102A500009FA01F14AEA0109C2F80C90D2F818907B
:102A600029EA080848EA01019161401C0228D0D3F4
:102A7000BDE8F0077047000000500040E0580040FB
:102A8000E45800409858004000800030E481003055
:102A9000248300304C1800304C1D0030CC0E003028
:102AA000CC09003064810030248000300080013087
:102AB00024800130000001308C0E0130F47F0200D0
:102AC000FC7F0200FDF7C2BF10B5FDF7BFFF012874
:102AD00018BF10BD0020FDF774FF21210020FDF775
:102AE000BBFF2121BDE810400120FDF7B5BF10B5A7
:102AF000FDF760FFFDF7AAFF01280AD10020FDF7CE
:102B000060FF21210020FDF7A7FF21210120FDF713
:102B1000A3FF0121052001F04CFE0121052001F059
:102B200048FEFA490020487110BD10B54FF4066008
:102B300001F095FEBDE810404FF4066001F080BE44
:102B4000F24A0146D078002818BF0120002918BF9A
:102B50000121D170002111717047EC4A516A506215
:102B600008467047E9490020887048707047E74977
:102B7000002088704870704710B5044601468422D2
:102B8000E3480BF071FA04F18401BDE8104084229F
:102B9000E0480BF069BA70B50007C00E0D46801E04
:102BA00000EB400101EB0014DB484FF4987200EB9E
:102BB000C40029460BF058FAD84805F5987100EB87
:102BC000C400BDE870404FF498720BF04DBADFF8C6
:102BD00050C348B14A424FF4806300EB810103EBDC
:102BE000820260460BF040BA4FF4806160460BF001
:102BF00040BA2DE9F04105460020FDF76BFFC94FB3
:102C0000DFF824830446EDB14C2004FB00F21646A5
:102C1000294638460BF028FA324605F5E46140466D
:102C20000BF022FA04EB440000EB041407EB8400E1
:102C30004C210BF01EFA08EB8400BDE8F0414C215A
:102C40000BF017BA4C21401C41430C4638460BF0A0
:102C500010FA21464046BDE8F0410BF00ABA10B523
:102C6000AA4CE061FEF702FAFEF7BBF961696269FE
:102C7000C1F307216FF30F0262616369C2B243EAD5
:102C800002226261022803D1626942F0010262619C
:102C900081421ABFA269002A10BD012918BF002174
:102CA000012818BF0020814208BF10BDBDE81040B8
:102CB00010474FF04020816941F0020181610169B4
:102CC00041F00301016101F002B82DE9F0414FF03C
:102CD0004022054690690C4640F00201916110695E
:102CE00040F00300106100F0F2FF0027002C7CD0C0
:102CF0000020FDF766FE00202168FEF757F840200F
:102D00006168FEF753F82846FFF7A9FF0020FDF79A
:102D100012FF0126002832D0A068FFF76AFF804822
:102D2000636953B1E1694FF4806C4A420CEB820253
:102D300003EB81010BF098F91AE07C4D4FF48061B0
:102D40000BF097F90020295600290EDB0A09120220
:102D500002EB800202F1405202F500320907C90E6F
:102D6000136806FA01F119431160401C2628EAD3C2
:102D70006F48A16969B14FF400720BF075F9E06812
:102D8000A0B30120FDF7D7FEDFF88C81634E28B198
:102D900008E04FF400710BF06CF9F0E71120FDF73B
:102DA000CAFE68B1E56840464FF4987229460BF0B8
:102DB0005BF930464FF4987205F598710BF054F9B1
:102DC0000220FDF7B8FE18B91220FDF7B4FE68B175
:102DD000E56858484FF4987229460BF045F9564873
:102DE0004FF4987205F5987101E017E001E00BF0DF
:102DF0003BF94120FDF79FFE18B95120FDF79BFEDE
:102E000060B1246954B18422214641480BF02CF969
:102E1000842204F184013F480BF026F93B48877077
:102E200047704762C1780021C17007714FF4066096
:102E300001F015FDBDE8F0414FF4066001F000BD62
:102E400010B50020FDF7BDFD00F031FF2F48806B6D
:102E5000002808BF10BD4FF04020016921F0030198
:102E60000161816921F00201816110BD4FF40660AA
:102E700001F0EBBC10B54FF4066001F0E6FCFDF785
:102E8000E5FD01280AD10020FDF79BFD212100204E
:102E9000FDF7E2FD21210120FDF7DEFD2748D0F8F6
:102EA000401321F48031C0F840130020FDF789FD64
:102EB00000F0FDFE1548806B002808BF10BD4FF0E4
:102EC0004020016921F003010161816921F00201C3
:102ED000816110BD10B501F0BDFC10F0600018BF9D
:102EE000012010BD094A9169906108467047074862
:102EF000C069704705484069704772B603494A691E
:102F000022EA0000486162B6704700003084001079
:102F10000080013000C001308C0E01308C4E013039
:102F2000000002300000013000400130A48A00108F
:102F300000400230BC0F0130BC4F01300050004057
:102F4000FE480078002818BF0120704770B5FDF7D3
:102F50007DFD002818BF70BD0024F84DAC706C706A
:102F600021212046FDF778FD21210120FDF774FD88
:102F70002C70BDE870400120FDF723BD70B50446FC
:102F8000FDF764FD002818BF70BD0021EB4DA9704E
:102F9000697021210020FDF75FFD21210120FDF74F
:102FA0005BFD022C3CBF0120FDF766FD012028706F
:102FB0002C62BDE87040FDF704BD10B5FDF746FD7D
:102FC000002818BF10BD0020DC4CA07060702121CB
:102FD000FDF742FD21210120FDF73EFD0120FDF717
:102FE0004BFD012020702062BDE81040FDF7E9BCD8
:102FF0000020FDF7E6BC10B5D04C0020A07060703A
:103000002121FDF729FD21210120FDF725FD207853
:1030100000281CBF0120FDF72FFD0120BDE8104056
:10302000FDF7CFBCC54988627047C448806A7047C5
:10303000C249C8627047C148C06A7047BF4A00F0C1
:103040000F00D16A21F00F010843D0627047BB48DE
:1030500090F82C0000F00F007047B84948637047A3
:10306000B648406B704770B5B44C0546A06A421C28
:10307000A262E16A11F0800F14BFC1F3021101F0E6
:103080000F0139B1B2FBF1F001FB1020002808BF9D
:10309000FEF7B1FE207850B1206A10B1206A401EC0
:1030A0002062206A002804BF0020FDF78AFC20214E
:1030B0002846FDF7D1FC616A00291CBF28468847D5
:1030C000FDF78FFF022815D19D48D0F8481311F065
:1030D000010F0FD0D0F8481341F00101C0F8481398
:1030E000D0F8481321F00101C0F84813606940F09E
:1030F00002006061FDF79BFF00216163216B1E29C7
:1031000002BF3C280121616320638E48016841F0C1
:103110002001016070BD0020A5E70120A3E710B5E4
:10312000FFF740FB0446FFF744FB8748044208BF13
:1031300010BD8248416941F0040141610E2101EA5C
:10314000D43104F001020A43416962F31F41416135
:103150007C48016841F02001016010BD002818BFC3
:1031600001207649886370477848704778487047EF
:103170007248C06B704771488179027A914214BFDE
:10318000006C406C70476D48406C70472DE9F04F03
:103190000025DFF8B8918DB009F14C04AC466F1EE4
:1031A00009F8057004F805C06D1C262DF8DB002514
:1031B000002805DD565D09F805606D1CA842F9DCA4
:1031C00000220126CDF804C06D46CDF800C00028CD
:1031D00021DD19F902B0BBF1000F19DBBBF1140FAF
:1031E000A8BFABF1140B04DABBF10A0FA8BF0BF1B7
:1031F000120BBBF1260F0BD24FEA5B180BF01F0B23
:1032000055F828A006FA0BFB4AEA0B0A45F828A055
:10321000521C8242DDDB002292460DF108084FEA83
:10322000521B02F01F0E55F82BB006FA0EFE1BEAD9
:103230000E0F1ABF08F802A00AF1010A08F802707E
:10324000521C262AEBDB4FF0000A002816DD19F984
:103250000A20002A0EDB142AA8BF143A02DA0A2A2E
:10326000A8BF1232262A3ABF18F8022004F80A2012
:1032700004F80A700AF1010A8245E8DBDFF8BC9025
:1032800000220028C9F83CC009DD14F902A09245CB
:1032900002D0C9F83C4002E0521C8242F5DB2D4AC4
:1032A0000020A2F17204A2F1260A27540AF800C0F5
:1032B00002F800C0401C2628F7DB0020002906DDAC
:1032C00013F800B004F800B0401C8142F8DC002084
:1032D000CDF804C0CDF800C0002913DD2356002B23
:1032E0000DDB262B0BD24FEA531B03F01F0355F8BF
:1032F0002BE006FA03F34EEA030345F82B30401C9B
:103300008842EBDB002003464FEA501B00F01F0E03
:1033100055F82BB006FA0EFE1BEA0E0F1ABF08F87E
:1033200000305B1C08F80070401C2628ECDB0020F5
:10333000002919DD2356002B13DB0DE0308400102B
:10334000005000408884001001000700A48A00108B
:10335000CA8A00103C8B0010262B3CBF18F80330A3
:103360001354401C8842E5DB0020C9F844C0002902
:1033700008DD1356834202D0C9F8442002E0401C05
:103380008842F6DB11F0010F18BF252015D0420945
:1033900000F01F0355F8222006FA03F31A420AD15F
:1033A000420900F01F0055F8223006FA00F01843D9
:1033B00045F8220001E0401EE9D5002002464309FD
:1033C00000F01F0B55F8233006FA0BFB13EA0B0F26
:1033D0001ABF08F80020521C08F80070401C26286C
:1033E000EDDB002000290BDD2256002A05DB262A12
:1033F0003CBF18F802200AF80020401C8842F3DB8A
:103400000020C9F840C00029DCBF0DB0BDE8F08F36
:103410001AF90020824204D0C9F840A00DB0BDE8DE
:10342000F08F401C8842F3DB0DB0BDE8F08FFE4802
:103430007047FE48806C70472DE9F001FA4C00227D
:1034400082B0551E04F1050CA5540CF80250521C14
:10345000052AF9DB00228B5CA354521C052AFADBF7
:1034600000230127194600280AD96256002A04DBE6
:10347000052A3CBF07FA02F21343491C8142F4D3E8
:1034800000210A466E4607FA01F818EA030F1ABF30
:103490007254521C7554491C0529F4DB0021002884
:1034A0000AD96256002A04DB052A3CBFB25C0CF83C
:1034B0000120491C8142F4D3DC4B0021002899648F
:1034C0009EBF02B0BDE8F00170471CF901208A429E
:1034D00005D0C3F848C002B0BDE8F0017047491CF0
:1034E0008142F2D302B0BDE8F001704740F2DB1137
:1034F0004843CF4901EB80007047CE49C0EB001034
:1035000001EBC0007047DFF824C3012B8CF80600E4
:103510008CF8071003D9401C20F0010011468CF8EC
:1035200008008CF8091000FB01F24FF6FF7101EA68
:103530004202ACF8102001EA4000ACF812007047DB
:10354000BA48407A7047B948007A7047B74A9072D3
:10355000D1727047B548C07A7047B448807A7047D6
:10356000B54A107051707047B349085C70472DE937
:10357000F047DFF8B892044699F80300002804BF2A
:1035800099F801000AF07AFD0AF06DF828B90023D5
:1035900001227F2107200EF0FDFF99F8040000288A
:1035A00008BFBDE8F0874FF00008D9F81C00474677
:1035B0004646454610F0070F1CBFDFF8748210F036
:1035C000020F05D0B9F81010994A21F001018F18A7
:1035D00010F0F00F18BF974E10F4774F18BF974DAB
:1035E000D9F828002060FDF7FFFC10F0010F06D08D
:1035F000FEF7BBF8022828BF99F8020000D200208D
:10360000E760C4E90108C4E904650120BDE8F0876A
:10361000864900200871704770B505460020FDF707
:1036200059FA4C2100FB01F21446854928460AF05C
:103630001BFD224605F5E460BDE8704081490AF0B3
:1036400013BDF0B583B00020FDF744FA0446694687
:103650000020FEF724FA0022002C2AD96E464FF0F3
:10366000010C4FF6F07502EB4200002100EB021056
:103670004B0901F01F0756F823300CFA07F73B42BD
:1036800011D0CB075B0C03EB80034F0803EB8703E0
:1036900003F1405303F580331B889BB2AB4202D940
:1036A00003B00020F0BD491C2629E1D3521CA242E0
:1036B000D9D303B00120F0BD70B50007C00E0D4690
:1036C000801E00EB400101EB00145F484FF498723C
:1036D00000EBC40128460AF0C7FC5C484FF498721E
:1036E00000EBC40105F59870BDE870400AF0BCBC61
:1036F0002DE9F04F07460007C00E83B0801E00255D
:1037000027F03F0BE9464FF001084FF6F0760290A4
:10371000384665F31F1040EA0B0000F0FF0A5046E0
:10372000FDF709FA00283DD05046FEF75AFA08FA8C
:1037300000F4022C88BF022469465046FEF7AFF918
:103740000022002C2ED902989821284400FB01FA6F
:1037500002EB4200002100EB021C480901F01F03AC
:1037600059F8200008FA03F3184215D001F00100BF
:103770000AEB803000EB8C004B0800EB830000F17B
:10378000405000F58030B0F88C0E80B2B04203D9C2
:1037900003B00020BDE8F08F491C2629DDD3521C60
:1037A000A242D5D36D1C022DB2D303B00120BDE8D7
:1037B000F08F10B50446842225490AF055FC04F127
:1037C0008400BDE81040842222490AF04DBC2DE956
:1037D000F04F83B0002002904020FDF7ACF9E9469D
:1037E0004FF001084FF6F077B0B34020FDF772F9C3
:1037F000044669464020FEF752F90022002C3AD9CF
:10380000002102EB420C480959F8203001F01F005A
:1038100008FA00F0034228D0C807400C00EB8C00E7
:103820004B0800EB830018E07C840010308400100B
:10383000D8190110442101103C84001034220110D9
:1038400000000130004001308C0E01308C4E013000
:103850000080013000C001300DE000F1405000F563
:10386000C030008880B2B84254D8491C0529CAD358
:10387000521CA242C4D301267000A0F1020B002505
:1038800046EA0510C0B240F0400A5046FDF753F931
:10389000B8B35046FEF7A5F908FA00F4022C88BF29
:1038A000022469465046FEF7FAF80021002C28D978
:1038B0000BEB050000EB40004FEAC00A002001EBD3
:1038C000410C420900F01F0359F8222008FA03F3C3
:1038D0001A4210D000F001020AEB823202EB8C0295
:1038E000430802EB830202F1405202F5C032928C8F
:1038F00092B2BA420ED8401C0528E2D3491CA1421C
:10390000DCD36D1C022DBBD3701CC6B2022EB3D902
:1039100001200290029803B0BDE8F08F2DE9F0413C
:1039200000268E4D00280C4645D000F00F01C0F354
:10393000011001290EBF00210229BDE8F0810228F3
:1039400028BFBDE8F0810F18FDF780F85FEA000896
:103950001CBF0020FDF735F800239820474303EBF8
:103960004300002200EB031C02F0010007EB803053
:10397000510800EB8C0000EB810000F1405000F595
:103980008030521CC0F88C4E262AEDD35B1C022BD3
:10399000E5D3B8F1000F08BFBDE8F081AE706E70DE
:1039A00021210020FDF758F821210120FDF754F8CE
:1039B0002878A0B330E0FDF749F807001CBF0020CD
:1039C000FCF7FFFF002303EB4300002200EB031092
:1039D000D107490C4FEA520C01EB800101EB8C0C32
:1039E0000CF1405C0CF5803C521CCCF80040262ABF
:1039F000EED35B1C312BE6D3002F08BFBDE8F0816E
:103A0000AE706E7021210020FDF726F821210120E3
:103A1000FDF722F8287810B10120FDF72DF8BDE858
:103A2000F0410120FCF7CDBF10B5FDF7D8FF4B49A1
:103A3000C88110BD494B10B4E02101EA102CDB898C
:103A4000C1B2C0F30422994288BF1946642461437D
:103A5000B1FBF3F102EBC20303EB021201EB8201B3
:103A60004FF47A723E4B0CFB02F2A3FB0232920837
:103A7000521C520810F4803F08BF494210F4003F26
:103A800014BF8818881A00B210BC704710B5354CA6
:103A90004FF4806134480AF0ECFA002001232156EB
:103AA000002910DB0A09120202EB800202F14052E7
:103AB00002F500320907C90ED2F800C003FA01F17D
:103AC0004CEA01011160401C2628E8D310BD10B556
:103AD000244C4FF4806124480AF0CBFA00200123E3
:103AE0002156002910DB0A09120202EB800202F1C2
:103AF000405202F500320907C90ED2F800C003FA9D
:103B000001F14CEA01011160401C2628E8D341F282
:103B1000EC0116480AF0ADFABDE8104041F2EC01A4
:103B200013480AF0A6BA0D4810B5C06911490840FB
:103B3000FFF795F84FF480610B480AF09AFA40F6C7
:103B40008C610A480AF095FA40F68C6108480AF040
:103B500090FABDE810400020FDF719BD3084001038
:103B6000ABAAAAAAA48A001000000230000001300B
:103B7000004001300100FF0082B04FF4FA62009073
:103B800013E000BF00BF00BF00BF00BF00BF00BF09
:103B900000BF00BF00BF00BF00BF00BF00BF00BF2D
:103BA00000BF0198411E0191EBD20098411E009187
:103BB00028BF0192F5D202B070472DE9F0410027ED
:103BC000634D0126002808BF2E701FD001282F70DA
:103BD00018BF6F701AD04FF04028D8F8100040F08E
:103BE0000400C8F8100029785A4C002914BF49F67F
:103BF00008305948E06014BF58484FF0BB70A060CF
:103C00005748006830F0FF0206D101E06E70E2E72D
:103C1000E26860F30302E26089B1A06840F0180036
:103C2000A0600120FFF7A8FFA06840F48050A060CA
:103C30000120FFF7A1FFA06840F40070A060012000
:103C4000FFF79AFF687870B1E06840F02000E0600C
:103C5000A06820F40070A0600120FFF78DFFE068ED
:103C600040F01000E060D4F8B00040F00100C4F86B
:103C7000B0000120FFF780FFE6674FF4E0602061AD
:103C8000C4F888702878002818BFC4F89460E068E9
:103C900020F03000E060A06820F49050A060D8F8D8
:103CA000100020F00400C8F81000BDE8F081294899
:103CB000C16821F03001C160816821F490518160B8
:103CC0004FF04020016921F00401016170474FF07D
:103CD0004020016941F0040101611D491D480A7835
:103CE0003AB1826842F018028260826842F49052CF
:103CF0008260497819B1C16841F03001C160D0F8E3
:103D0000B01041F00101C0F8B0107047B0F5007F6D
:103D100028BF40F2FF10C0F30800124941EA00201A
:103D20000C49086470470B494FF020400864704705
:103D3000084A116C4FF020401064506C11F0FF0FD6
:103D4000C0F308201CBF41F02041116470470000FF
:103D5000868400100060004005F4010020009B00F4
:103D6000D0FE0400130000A04FF0402000210163AA
:103D700002224263826B02F03C0242F00102826343
:103D8000026922F003020261026A22F00102026269
:103D9000424A136843F0010313603C2282612822E7
:103DA000C2613F4801603F4801603F4850F88C2F96
:103DB00042F4805202603D4A481E10603C48016057
:103DC000704710B501F0F9FA39480468002C08BFB3
:103DD00030BFFAD00021016001F0F3FA204610BD97
:103DE00010B501F0EAFA324B00204FF040210122D9
:103DF0001C6824B1186001F0E4FA204610BD72B6C8
:103E0000D1F838C00CF03C0CC1F838C00A6320BFB0
:103E10000863D1F838C00CF03C0C4CF0010CC1F830
:103E200038C062B6BFF36F8FBFF34F8FE0E710B5B6
:103E300004460F2000F0F8FC0F2000F0DDFC1D49C7
:103E40000A6842EA0400086010BD1A490A6822EABA
:103E5000000008607047164A516850600846704775
:103E600070B51448006814490968114D00EA01044E
:103E7000696800291CBF2046884714F0100F05D040
:103E8000094850F88C1F41F48051016007480460D4
:103E9000286840F40040286070BD000000480040E1
:103EA00024480040104800400030004014480040C2
:103EB000888400101C480040184800407047704734
:103EC0000022B2EBD10F26D20368B3F1FF3F04BF4B
:103ED0004368B3F1FF3F17D18368B3F1FF3F04BFDD
:103EE000C368B3F1FF3F0FD10369B3F1FF3F04BFD4
:103EF0004369B3F1FF3F07D18369B3F1FF3F04BFCB
:103F0000C369B3F1FF3F01D0002070472030521C3D
:103F1000B2EBD10FD8D30120704710B40023B3EB1C
:103F2000D20F30D2D0F800C00C68A44522D1D0F80E
:103F300004C04C68A4451DD1D0F808C08C68A445C5
:103F400018D1D0F80CC0CC68A44513D1D0F810C05B
:103F50000C69A4450ED1D0F814C04C69A44509D110
:103F6000D0F818C08C69A44504D1D0F81CC0CC6925
:103F7000A44502D010BC00207047203020315B1CCB
:103F8000B3EBD20FCED310BC012070472DE9F04126
:103F9000054601F01AFA002021264FF48257844684
:103FA0004FF4E0221660C5F800C0116841F004012A
:103FB0001160116811F0040FFBD1176080232C46AB
:103FC0000021D4F80080B8F1FF3F04BFD4F804808A
:103FD000B8F1FF3F1DD1D4F80880B8F1FF3F04BF0E
:103FE000D4F80C80B8F1FF3F13D1D4F81080B8F1A9
:103FF000FF3F04BFD4F81480B8F1FF3F09D1D4F8D3
:104000001880B8F1FF3F04BFD4F81C80B8F1FF3F1F
:1040100008D0C2F800C0401CC0B20828C2D3022099
:10402000BDE8F081491C2034B1EBD30FC9D3C2F8ED
:1040300000C00120BDE8F0812DE9F041054601F006
:10404000C4F90020092684464FF4E0231E60C5F819
:1040500000C0196841F004011960196811F0040FDB
:10406000FBD12C464FF4806200212768B7F1FF3F57
:1040700004BF6768B7F1FF3F17D1A768B7F1FF3FEB
:1040800004BFE768B7F1FF3F0FD12769B7F1FF3FE2
:1040900004BF6769B7F1FF3F07D1A769B7F1FF3FD9
:1040A00004BFE769B7F1FF3F08D0C3F800C0401C68
:1040B000C0B20328CAD30220BDE8F081491C2034D5
:1040C000B1EBD20FD1D3C3F800C00120BDE8F0811D
:1040D0002DE9F05F8846814604274FF07F0A4FF0B4
:1040E000020B4FF4E02601F070F949464246534670
:1040F0004FF0060CC6F800B052F8040B41F8040B60
:10410000C6F800C0306810F0040FFBD15B1EF1D27E
:10411000002030604C4645461F20D4E900C3D4E956
:104120000221D5F800E0E64504BFD5F804C09C455F
:1041300005D1AB68934204BFEA688A4208D07F1E6B
:1041400003D34846FFF722FFCDE70220BDE8F09FEA
:1041500010341035401EE0D20120BDE8F09F70B54C
:104160000D46044601F031F94FF40072214628460D
:1041700009F07AFF012070BD2DE9F0410546C00528
:10418000ADF5007D14460E46C00D25D0A8466FF350
:1041900008086F4601F019F94FF40072414638469D
:1041A00009F062FFC5F30800C0F50077A74288BF99
:1041B000274668443A46314609F065FF4046FFF716
:1041C000E5FE022844D069464046FFF781FF0228F9
:1041D00043D03D443E44E41BB4F5007F19D34FF473
:1041E00000723146684609F04EFF2846FFF7CEFEC2
:1041F00002282DD069462846FFF76AFF02282CD0F6
:10420000A4F5007405F5007506F50076B4F5007F99
:10421000E5D2C4B16F4601F0D8F84FF400722946D8
:10422000384609F021FF22463146684609F02BFF47
:104230002846FFF7ABFE02280AD069462846FFF75A
:1042400047FF022809D00DF5007D0120BDE8F0816F
:104250000DF5007D0A20BDE8F0810DF5007D0B20F5
:10426000BDE8F08130B4354D2A68002101244FF0BB
:10427000030C04FA01F3034204D04B000CFA03F3DD
:104280009A431A43491C0C29F3DB2A6030BC70475F
:10429000F0B42A4D2A68002101244FF0030C0226B5
:1042A00004FA01F3034206D04B000CFA03F7BA43B9
:1042B00006FA03F31A43491C0C29F1DB2A60F0BC0F
:1042C00070472DE9F001002201251D4C0F2605FA4B
:1042D00002F3034217D0D31702EB537C4FEAEC03EF
:1042E00004EB83031F682CF0070CA2EB0C0C4FEAC5
:1042F0008C0C06FA0CF827EA080701FA0CFC47EACE
:104300000C0CC3F800C0521C0C2AE0DB0B498A6A73
:1043100022EA00008862BDE8F001704707498A6A16
:104320001043886270470548416821F08001416070
:10433000416821F4007141607047000000100040A6
:1043400020100040704772B64FF04020816941F064
:1043500040018161C16941F04001C16162B6016AF9
:1043600041F00101016270474FF04020016A21F0E5
:104370000101016272B6C16921F04001C161816928
:1043800021F04001816162B6704710B572B64FF0FE
:104390004024A06940F04000A061E06940F0400086
:1043A000E06162B6206A40F001002062D94843F61D
:1043B0003F71C160002181638164C0F8D010032186
:1043C0000A2000F0F6F90A2000F016FA206A20F020
:1043D0000100206272B6E06920F04000E061A0694F
:1043E00020F04000A06162B610BDCA4A1060516062
:1043F000484390607047C74A10605160484310F0CE
:10440000010F18BF401C90607047C249C1F8D0002E
:104410007047C049002818BF012088647047BD4913
:104420008863C86840F00200C8607047DFF8E4C2E3
:10443000CCF82000CCF82410CCF82820CCF82C3074
:104440000120CCF83000DCF8340010F0010F05D06A
:1044500020BFDCF8340010F0010FF9D110F0020099
:1044600018BF4FF0FF307047AA48C16821F0020121
:10447000C1607047A748C16841F00101C160704741
:10448000A44B186259629A6201201864586C10F0AB
:10449000010F04D020BF586C10F0010FFAD110F0BA
:1044A000060018BF4FF0FF3070479A48C16821F0EE
:1044B0000101C16070479748C16841F00401C160C3
:1044C0007047944A8189116701685162416891621D
:1044D0008168D16201211165516D11F0010F04D085
:1044E00020BF516D11F0010FFAD1536F0361936F2B
:1044F0001B148382936FC3F30523C382936F03F06E
:104500003F030383D36F1B144383D36FC3F305238C
:104510008383D36F03F03F03C383D2F88030C3F3A8
:1045200009430384D2F88020C2F30902428411F0C7
:10453000020018BF4FF0FF3070477648C16821F085
:104540000401C16070477348C16841F00401C16053
:104550007047027C017B02F03F0241EA02416D4A52
:10456000916501685162416891628168D16201215F
:104570001165516D11F0010F04D020BF516D11F084
:10458000010FFAD1D36D8382D36D1B0CC382136EDE
:104590000383136E1B0C4383536E8383526EC2F3EB
:1045A0000E42C28311F0020018BF4FF0FF30704777
:1045B0005848C16821F00401C16070475548C1687E
:1045C00041F00801C1607047DFF848C1CCF898207D
:1045D000CCF82000CCF82430CCF828100120CCF8FE
:1045E0009000DCF8940010F0010F05D020BFDCF83B
:1045F000940010F0010FF9D110F0060018BF4FF031
:10460000FF3070474348C16821F00801C16070471E
:1046100001684FEA31423F49C1F8BC204068C1F807
:10462000C000C86840F02000C860704701684FEAC9
:1046300031423849C1F8BC204268C1F8C020027A32
:10464000407A02F0010262F35F00C1F8C400C8685A
:1046500040F02000C86070472E4B18625A62996281
:104660000120C3F8B400D3F8B80010F0010F05D052
:1046700020BFD3F8B80010F0010FF9D110F00600F8
:1046800018BF4FF0FF307047224A1062516201207C
:10469000C2F8B000D2F8B80010F0010F05D020BF6A
:1046A000D2F8B80010F0010FF9D110F0060018BFD1
:1046B0004FF0FF3070471748C16821F02001C160FA
:1046C00070471448C16841F01001C1607047A3F100
:1046D000050C104BC3F8A8C018625A6299620120F9
:1046E000C3F8A000D3F8A40010F0010F05D020BF3C
:1046F000D3F8A40010F0010FF9D110F0060018BF94
:104700004FF0FF3070470348C16821F01001C160CD
:104710007047000000900040234810B5022140F887
:10472000501F012101611021416241F206014161E6
:10473000002181610421816390214163416B41F03B
:1047400001014163C16B21F40021C163C16B41F4DC
:104750000051C163C16B21F00101C163C16B41F024
:104760000101C1634FF4817101610161032000F017
:1047700043F80021032000F01CF8002010BD10B504
:10478000032000F045F808484FF4807101660021CD
:1047900001661021816702214165002010BD034997
:1047A0000020087070470000003000409084001026
:1047B000704700F00303DA004FF0FF0C0CFA02F22E
:1047C0004FF0050C0CEBC30301FA03F300F00C01EE
:1047D00001F1E021002807DAD1F8140D90431A40C6
:1047E0001043C1F8140D7047D1F8000490431A40EB
:1047F0001043C1F80004704700F01F01012202FAC3
:1048000001F14009800000F1E020C0F8001170477C
:1048100000F01F01012202FA01F14009800000F1BD
:10482000E020C0F88011704700F01F01012202FA59
:1048300001F14009800000F1E020C0F880127047CB
:104840004FF0E021C1F8000170474FF0E021C1F8BE
:10485000800170474FF0E020D0F8000170474FF022
:10486000E021C1F880027047084800687047074A95
:104870001168106008467047044A126800F110037E
:1048800052F8230042F823107047000008ED00E0C2
:1048900002210C20FFF78DBF72B64FF040208169D6
:1048A00041F480518161C16941F48051C16162B6B6
:1048B000704772B64FF04020816921F480518161C8
:1048C000C16921F48051C16162B67047AA4881B0C4
:1048D000016F11F4007FFBD1816E11F0010F1CBF3D
:1048E000D0F88410009104D0D0F88410009A91423E
:1048F000FAD0016F11F4007F04BF4CF27101016620
:1049000042F24131816601B070479B4981B04FF45A
:104910000D528A660A6FCA66012898BF012005D920
:10492000401EB0F5803F28BF4FF6FF7082B24FF0B7
:104930005C5040EA022048664FF01140C1F8800008
:10494000086F10F4007FFBD1886E10F0010F1CBFC0
:10495000D1F88400009004D0D1F88400009A9042ED
:10496000FAD0086F10F4007F04BF4CF271000866A3
:1049700042F24130886601B070477F4881B0016FD4
:1049800011F4007FFBD1816E11F0010F1CBFD0F834
:104990008410009104D0D0F88410009A9142FAD08B
:1049A0004FF40D51816601B070474FF0402080698F
:1049B00010F4805008BF70476F48806E00F001000F
:1049C00070476D48406EC0F30F2070476A48D0F8BA
:1049D0008400704710B50C20FFF726FF0C20FFF76E
:1049E0000BFF65490220486710BD634910B50320DD
:1049F00088670C20FFF70CFFBDE810400C20FFF784
:104A000013BF5E4A11681060084670475A4810B5D7
:104A1000016FC16659480068002818BF8047584890
:104A2000016841F48051016010BD544840687047EE
:104A300010B572B64FF04020816941F48051816118
:104A4000C16941F48051C16162B603204A49886757
:104A50000C20FFF7DDFE0C20FFF7E6FE00F03CF92E
:104A6000484B0420C3F888004FF6FF70C3F88C0051
:104A700072B66033FFF749FF4FF40070186062B6FA
:104A800010BDF8B572B63C48016F11F4007FFBD140
:104A9000816E11F0010F1CBFD0F88410009104D07A
:104AA000D0F88410009A9142FAD04FF40D518166EB
:104AB00034494FF400320A6662B6D1F804124FF05E
:104AC0004025002946D02D4C4FF6FF73591AA1609E
:104AD0002A6BD5F834C002F00F020CF00F0C6244C0
:104AE000121D01FA02F2A2F54341DFF89CC05139D0
:104AF00061452FD2D0F88400191AE160B1F5803FEA
:104B000028D2224B4FF0000CA1FB03070CFB0373D0
:104B100001FB0C31634609F0BBFA401C40082061E0
:104B2000B0F57A7F38BF4FF47A70194B9968002935
:104B300008BF98605A681A609968C3E901108A42F0
:104B400015D9824205D9814201D9616002E06060D5
:104B500000E0626000F0D0F872B6A86920F48050DE
:104B6000A861E86920F48050E86162B6F8BD82422D
:104B7000EFD88142EBD8E8E700C0004094840010F1
:104B80008884001000A000404F62250000E1F50578
:104B9000648B00104FF04020816941F00401816175
:104BA0000C48016841F404710160001F016821F0A4
:104BB00004010160016841F010010160704706497D
:104BC00008607047BFF34F8F054904480860BFF382
:104BD0004F8FFEE714ED00E008ED00E00400FA0559
:104BE0000CED00E04FF04020816941F0040181614B
:104BF0000B48016841F0010101600B490948C1F807
:104C0000C40070470948006842F2700108407047CC
:104C1000084807490160084981600021C160704768
:104C2000144C004001005FA00060004000440040C0
:104C3000A0C00E0000100040508A5900022824BF76
:104C400000207047DC4B53F8202043F8201010461A
:104C5000704770B5D94C206FD74D10F0010F05D0BB
:104C60000120E0662868002818BF8047206F10F0F8
:104C7000020F08BF70BD0220E0666868002808BF08
:104C800070BDBDE87040004710B572B64FF04020CF
:104C9000816941F080018161C16941F08001C16198
:104CA00062B60222C5490A6501230B660323CB665F
:104CB0004A6572B6816921F080018161C16921F084
:104CC0008001C16162B60920FFF796FD0221BDE8AF
:104CD00010400920FFF76DBD72B64FF0402081698A
:104CE00041F080018161C16941F08001C16162B61A
:104CF0000220B24908657047B0490220486572B683
:104D00004FF04020816921F080018161C16921F06B
:104D10008001C16162B670474FF040208069C0F3E6
:104D2000C0107047A548016F11F4007F14BF4FF405
:104D300040714FF480710166704710B59F4CE06F71
:104D400010F0020F4FF0010018BF0320606700F061
:104D50006DF94FF040210A6B496B02F00F02D04011
:104D600001F00F01C8400521B0FBF1F04FF40571CF
:104D70000009C4F880109249A1FB00104009C4F852
:104D80008400206F10F4007F14BF4FF440704FF484
:104D90008070206610BD8948016F11F4807F14BFB8
:104DA0004FF440714FF4007101667047834B30B48B
:104DB000DA6F12F0010F14BF032202225A6700EBD0
:104DC0004005C5EBC010C1EBC0004FF4FA744C4372
:104DD000C0EB001000EB40007A4904EBC000A1FBDF
:104DE00000104FF0402100220C6B4FF0020CC00865
:104DF000496B04F00F0401F00F012144C840052164
:104E0000B0FBF1F0B0F5803F05D3511C4008CAB2A9
:104E1000B0F5803FF9D242EA0C2141F01001C3F80D
:104E20008810C3F88C00186F10F4807F14BF4FF403
:104E300040704FF40070186630BC70475F48016FD7
:104E400011F4003F14BF4FF440314FF4803101663C
:104E500070475A48016F11F4803F14BF4FF440313E
:104E60004FF40031016670475448006FC0F30020D2
:104E700070475248006FC0F3402070474FF0402108
:104E80008969C1F3C011002904BF002070474B4954
:104E900000280CBFD1F80002D1F8040270474FF08F
:104EA00040239A69C2F3C012002A04BF0020704751
:104EB000424A00280CBFD2F88000D2F88800C0F324
:104EC0000A200CBFD2F88020D2F8882002F00F020E
:104ED000D3F830C05B6B0CF00F0C03F00F0363448E
:104EE0001A449140012202EB400048433449A1FB9F
:104EF000001000097047344901200870704770B4F1
:104F000032224FF0402351431A6BD3F834C002F0E1
:104F10000F020CF00F0C6244121DD14008BF01219A
:104F200004D0B1F5803F28BF4FF6FF719A69C2F3F4
:104F3000C012002A1CBF70BC704772B69A6942F05A
:104F400080029A61DA6942F08002DA6162B6022474
:104F50001A4A1465250415664FF0040CC2F888C07F
:104F6000C2F88C10DFF864C0C2F86CC054671849EE
:104F700002283CBF104E46F8201000211248017054
:104F80004FF400711166017819B920BF017800292A
:104F9000FBD01566C2F878C0C2F86CC0546572B612
:104FA000986920F080009861D86920F08000D8616D
:104FB00062B670BC70470000AC84001000A00040D6
:104FC0001F85EB51CDCCCCCCA8840010020002028E
:104FD000A76E00004FF0E02100208861086127499A
:104FE0004860704710B54FF0E02460610020A06178
:104FF0000221401EFFF7DDFB07202061BDE81040C5
:1050000008F04EBA10B508F04FFA4FF0E02100203A
:10501000086110BD10B508F047FA4FF0E0210020FC
:10502000086116480188491C018010BD134880683A
:1050300070472DE9F041114C002705462780A068F4
:105040004FF47A71B0FBF1F04FF0E026401E706132
:10505000B7610221C81EFFF7ACFB0720306108F0E2
:105060001FFA2188A942FCD308F01EFA3761BDE877
:10507000F08103494843014988607047B4840010B7
:1050800040420F004FF04020816921F400518161BE
:10509000C16921F40051C1617047A8490A78824270
:1050A00018BF062828BF7047A54AA64B52F830C043
:1050B000C3F808C002EBC0025268DA60087070479B
:1050C0004FF04020816941F400518161C16941F490
:1050D0000051C161704710B501210720FFF769FB3E
:1050E0004FF04020816941F400518161C16941F470
:1050F0000051C161934A0021116093495160DFF86A
:105100003CC200219CF800303BB10CF110031C683C
:1051100094605B68D3608CF800108C4911618169E0
:1051200021F400518161C16921F40051C16110BDB8
:105130008248406870478348806970474FF040203C
:10514000806910F4005008BF70477E48006900F085
:10515000010070474FF04020806910F4005F04D0D8
:10516000784B186910F0010F01D10020704710B47E
:1051700072494FF6FE7000248A684AB19A69D1F8E4
:1051800008C0624504D08C604C6010BC01207047A0
:1051900000BF00BF00BF00BF00BF00BF00BF00BF17
:1051A00000BF00BF00BF00BF00BF00BF00BF00BF07
:1051B00000BF00BF00BF00BF00BF00BF00BF00BFF7
:1051C000401E0028D8DC8C604C6010BC002070476A
:1051D0005A49886070475948806870475948016942
:1051E00041F001010161554901204860704755486F
:1051F000016921F0010101615049002048607047B8
:105200000021002808BF4FF0006103D0022808BF2A
:105210004FF080614B48026922F040621143016106
:10522000704748490120096901F04061B1F1806F80
:1052300004BF02207047B1F1006F08BF0020704723
:105240004048406970473D48007870474FF0402023
:10525000806910F4005F38D03A4A106910F0010FED
:1052600033D03648406801282FD090696FF07F43D3
:10527000984238BF00EB400C27D25169B1EB9C0F2C
:1052800001D30120704700BF00BF00BF00BF00BFB7
:1052900000BF00BF00BF00BF00BF00BF00BF00BF16
:1052A00000BF00BF00BF00BF00BF00BF00BF00BF06
:1052B00000BF00BF00BF00BF00BF00BF00BF00BFF6
:1052C00000BF00BF00BF9842D7D30020704710B581
:1052D0000720FFF7A9FA0720FFF78EFA194801699E
:1052E00041F01001016110BD164810B5016921F0AF
:1052F000100101610720FFF78BFABDE8104007207D
:10530000FFF792BA0D4AD168D0600846704738B5A9
:105310000C4CE069E061094910F0020F1CBFA26962
:105320008A60C96800291CBF00018847E0690090B5
:105330000748016841F08001016038BDC084001059
:10534000D084001000D00040D0121300660F00156A
:1053500088840010704770B505464FF40D50040660
:10536000A0660320E066264860664CF27100206665
:105370002448C4F8800042F24630A0660221002092
:10538000FFF717FA0020FFF737FA002D08BF70BDAE
:10539000A06E42F241310843A06670BD012110B5F4
:1053A000880781674FF40D5181660020FFF730FABE
:1053B000BDE810400020FFF737BA01208107486799
:1053C000704701208107886770474CF271008107A0
:1053D000086670470C4A11681060084670470A4812
:1053E00008B5006818B18047002818BF08BD4CF206
:1053F000710188070166016FC166006F009008BDEA
:10540000075E5F3700AF2F9100850010FE49002036
:1054100088717047FC488079704770B5FA4C002558
:105420004FF4E4612570E570F84808F022FE4FF46F
:10543000E461F74808F01DFEA56025714C21F54890
:1054400008F017FE4C21F44808F013FE6571742132
:10545000F24808F00EFE7421F14808F00AFEE560FB
:1054600070BDE9480079002818BF01207047E64860
:105470004079002818BF01207047E348C078002811
:1054800018BF01207047E548704770B5E54DE64EFE
:10549000044601462A783078E04B10444200184612
:1054A00008F0F1FD2A783078DD4B104442002146A7
:1054B000184608F0E8FDD44801214171817941F096
:1054C0000401817170BDD048C0687047CF487047F3
:1054D0002DE9F041CC4F80463878002814BFD348DE
:1054E000D348057814BFD348D348047805FB04F6A5
:1054F000FEF729FF21462846FEF777FFC3494346BA
:10550000C34A0846FEF792FFFEF72EFF720041469F
:10551000BF4808F0B8FD0120F870B87940F00100EC
:10552000B8710120BDE8F0812DE9F047B64D044681
:1055300001462878DFF8D4C2DFF8F082DFF8F09275
:10554000BC4EBD4F002815BF98F8002099F80020E8
:1055500033783B7802FB03F04FEA4002604608F0E4
:1055600092FD2878DFF8A8C22146002815BF98F8D8
:10557000002099F8002033783B7802FB03F04FEAD3
:105580004002604608F07FFD0120E870A87940F0F5
:105590000100A871BDE8F0879B488068704770B52E
:1055A000A64C0546014622789A48520008F06BFD49
:1055B000227829465200984808F065FD924801215A
:1055C0000171817941F00201817170BD2DE9F04FC7
:1055D000ADF25C7DDFF830820120CDF8400798F80D
:1055E0000300CDF83C0798F80400CDF838070024F4
:1055F00098F805B002F0D4F80546FDF763FACDF847
:105600005407FDF79DFCCDF85007FBF7BBFFCDF825
:105610004C07FBF7E9FC0646FBF7E3FC0746FDF702
:1056200053FA98F80100002804BF0420C8F81400B9
:105630000BD0022D18BF642411D002F0C9F806283F
:1056400008BF0F24002088F80100FBF7CDFC10F004
:10565000010F14D002F02DFA3C280AD00FE016F00A
:10566000C6FE48F20211084214BF4FF4FA74FA243D
:10567000E3E7FFF763FD002818BFFFF7E7FD4FF0F2
:105680000109022F0AD1022D08BF4FF47A7403D00A
:10569000052D08BF322401D188F80190002CD8BF15
:1056A000D8F814000EDD16F0010F27D002F001FA31
:1056B000F8B160434FF47A7100F5FA70B0FBF1F085
:1056C000C8F814000228BCBF0220C8F8140098F8DB
:1056D0000100B8F81410000240EA014040F0010255
:1056E0000023912107200CF055FF16F0010F37D150
:1056F00010E0052D14BF78203C20DAE7FBF736FFD9
:105700004FF47A71614300F5967001EB5001B1FBE3
:10571000F0F0D5E7022D23D00020FBF738FFFDF78E
:105720004CFC0025AA4607F0BCFD01281ED00DF553
:10573000E460FDF71CFF002800F0E1810DF5E46056
:1057400009F01DFAD8F81400C01EA842ACBF01260B
:105750000026DDF82C0748B3DDF8380750B144E0E7
:10576000FDF7F4FB0020CDF84007DAE74FF0010A1F
:1057700000F0AFB96846DDF82C1708F08EFC07463C
:10578000AEB12E4C394620784200224808F07BFC0E
:10579000207839464200204808F075FC88F80490CB
:1057A00098F8060040F0020088F806001DE0FEF7B9
:1057B000CAFD224C01212078FEF717FE164A3B460F
:1057C000A2F14C010846FEF731FEFEF7CDFD207830
:1057D00039464200104808F056FC88F8049098F8C2
:1057E000060040F0020088F80600DDF828070028CF
:1057F00000F0ED80DDF83C07002840F0E88098F8E4
:105800000000DDF828471BE0048500106C22011021
:10581000708B0010D0A000101CA100108C2901106A
:1058200068A10010698500106A8500106785001066
:105830006485001068850010658500106B85001078
:1058400000285BD1D8F8087027B3F9480078CDF864
:105850004807F8480078CDF84407FEF774FDDDF8F6
:105860004417DDF84807FEF7C6FD21463A460846CC
:10587000FEF706FEFEF778FDEF480078022804BF29
:10588000384608F050FEEC480078092804BF20464E
:1058900008F049FEE9480078012811D9E64F387828
:1058A000042804BF204608F03EFE2146684608F062
:1058B000F9FB04463878052804BF204608F033FE7B
:1058C00001F06EFF022803D001F06AFF032815D112
:1058D00002F01CF990B102F019F9D94903460A788F
:1058E000D84909784A432146084608F0E0FBD248E7
:1058F0000078582804BF204608F015FE7EB3D24831
:1059000098F800202146002A0CBFCD4AC84A1278D8
:1059100014BFC84BCB4B1B7802FB03F24FEA420289
:1059200008F0B1FB98F80000C84B2146002814BFCE
:10593000BF48C348007814BFBE4AC24A127800FB71
:1059400002F04FEA4002184608F09DFB88F80390E9
:1059500098F8060040F0010088F8060030E0FFE704
:10596000CDF8444798F80000002814BFB048B44868
:10597000077814BFAF48B348047807FB04F0CDF8AC
:105980004807FEF7E0FC21463846FEF72EFDAE49FB
:10599000AE4A0846DDF84437FEF748FDFEF7E4FC62
:1059A000DDF84807DDF844174200A84808F06BFB13
:1059B00088F8039098F8060040F0010088F8060087
:1059C0009D480078032804BF9F4808F0ACFDDDF82F
:1059D0003007002873D0BBF1000F70D1044698F84F
:1059E000000038BBD8F80C7027B399480178994863
:1059F00000780844401C4008019002200090FEF707
:105A0000A2FCDDE90010FEF7F6FC21463A46084606
:105A1000FEF736FDFEF7A8FC8F480078022804BF89
:105A2000384608F040FF8C480078092804BF20461B
:105A300008F039FFD6B18948854E864F2146337824
:105A40003A781A44520008F01EFB32783B788448BA
:105A50001A442146520008F016FB88F8059098F881
:105A6000060040F0040088F8060021E07848264649
:105A70000178784800780C18FEF765FC601C400837
:105A80000221FEF7B2FC75493346754A0846FEF717
:105A9000CDFCFEF769FC62003146714808F0F3FA6C
:105AA00088F8059098F8060040F0040088F8060091
:105AB00069480078032804BF684808F0F4FEFDF741
:105AC000A7FDD8F814006D1CA84211DCD8F810000E
:105AD00070B1FCF7F9FFDDF84C07FBF758FDDDF876
